{
  "contractName": "Helloworld",
  "abi": [
    {
      "inputs": [
        {
          "internalType": "string",
          "name": "_message",
          "type": "string"
        }
      ],
      "stateMutability": "nonpayable",
      "type": "constructor"
    },
    {
      "inputs": [],
      "name": "message",
      "outputs": [
        {
          "internalType": "string",
          "name": "",
          "type": "string"
        }
      ],
      "stateMutability": "view",
      "type": "function",
      "constant": true
    },
    {
      "inputs": [],
      "name": "owner",
      "outputs": [
        {
          "internalType": "address",
          "name": "",
          "type": "address"
        }
      ],
      "stateMutability": "view",
      "type": "function",
      "constant": true
    },
    {
      "inputs": [],
      "name": "hello",
      "outputs": [
        {
          "internalType": "string",
          "name": "",
          "type": "string"
        }
      ],
      "stateMutability": "view",
      "type": "function",
      "constant": true
    },
    {
      "inputs": [
        {
          "internalType": "string",
          "name": "_message",
          "type": "string"
        }
      ],
      "name": "setMessage",
      "outputs": [],
      "stateMutability": "payable",
      "type": "function",
      "payable": true
    }
  ],
  "bytecode": "0x60806040523480156200001157600080fd5b5060405162000a2938038062000a298339818101604052810190620000379190620002e5565b80600090805190602001906200004f92919062000098565b5033600160006101000a81548173ffffffffffffffffffffffffffffffffffffffff021916908373ffffffffffffffffffffffffffffffffffffffff160217905550506200039b565b828054620000a69062000365565b90600052602060002090601f016020900481019282620000ca576000855562000116565b82601f10620000e557805160ff191683800117855562000116565b8280016001018555821562000116579182015b8281111562000115578251825591602001919060010190620000f8565b5b50905062000125919062000129565b5090565b5b80821115620001445760008160009055506001016200012a565b5090565b6000604051905090565b600080fd5b600080fd5b600080fd5b600080fd5b6000601f19601f8301169050919050565b7f4e487b7100000000000000000000000000000000000000000000000000000000600052604160045260246000fd5b620001b18262000166565b810181811067ffffffffffffffff82111715620001d357620001d262000177565b5b80604052505050565b6000620001e862000148565b9050620001f68282620001a6565b919050565b600067ffffffffffffffff82111562000219576200021862000177565b5b620002248262000166565b9050602081019050919050565b60005b838110156200025157808201518184015260208101905062000234565b8381111562000261576000848401525b50505050565b60006200027e6200027884620001fb565b620001dc565b9050828152602081018484840111156200029d576200029c62000161565b5b620002aa84828562000231565b509392505050565b600082601f830112620002ca57620002c96200015c565b5b8151620002dc84826020860162000267565b91505092915050565b600060208284031215620002fe57620002fd62000152565b5b600082015167ffffffffffffffff8111156200031f576200031e62000157565b5b6200032d84828501620002b2565b91505092915050565b7f4e487b7100000000000000000000000000000000000000000000000000000000600052602260045260246000fd5b600060028204905060018216806200037e57607f821691505b6020821081141562000395576200039462000336565b5b50919050565b61067e80620003ab6000396000f3fe60806040526004361061003f5760003560e01c806319ff1d2114610044578063368b87721461006f5780638da5cb5b1461008b578063e21f37ce146100b6575b600080fd5b34801561005057600080fd5b506100596100e1565b60405161006691906103d7565b60405180910390f35b61008960048036038101906100849190610542565b610173565b005b34801561009757600080fd5b506100a06101e7565b6040516100ad91906105cc565b60405180910390f35b3480156100c257600080fd5b506100cb61020d565b6040516100d891906103d7565b60405180910390f35b6060600080546100f090610616565b80601f016020809104026020016040519081016040528092919081815260200182805461011c90610616565b80156101695780601f1061013e57610100808354040283529160200191610169565b820191906000526020600020905b81548152906001019060200180831161014c57829003601f168201915b5050505050905090565b600160009054906101000a900473ffffffffffffffffffffffffffffffffffffffff1673ffffffffffffffffffffffffffffffffffffffff163373ffffffffffffffffffffffffffffffffffffffff16146101cd57600080fd5b80600090805190602001906101e392919061029b565b5050565b600160009054906101000a900473ffffffffffffffffffffffffffffffffffffffff1681565b6000805461021a90610616565b80601f016020809104026020016040519081016040528092919081815260200182805461024690610616565b80156102935780601f1061026857610100808354040283529160200191610293565b820191906000526020600020905b81548152906001019060200180831161027657829003601f168201915b505050505081565b8280546102a790610616565b90600052602060002090601f0160209004810192826102c95760008555610310565b82601f106102e257805160ff1916838001178555610310565b82800160010185558215610310579182015b8281111561030f5782518255916020019190600101906102f4565b5b50905061031d9190610321565b5090565b5b8082111561033a576000816000905550600101610322565b5090565b600081519050919050565b600082825260208201905092915050565b60005b8381101561037857808201518184015260208101905061035d565b83811115610387576000848401525b50505050565b6000601f19601f8301169050919050565b60006103a98261033e565b6103b38185610349565b93506103c381856020860161035a565b6103cc8161038d565b840191505092915050565b600060208201905081810360008301526103f1818461039e565b905092915050565b6000604051905090565b600080fd5b600080fd5b600080fd5b600080fd5b7f4e487b7100000000000000000000000000000000000000000000000000000000600052604160045260246000fd5b61044f8261038d565b810181811067ffffffffffffffff8211171561046e5761046d610417565b5b80604052505050565b60006104816103f9565b905061048d8282610446565b919050565b600067ffffffffffffffff8211156104ad576104ac610417565b5b6104b68261038d565b9050602081019050919050565b82818337600083830152505050565b60006104e56104e084610492565b610477565b90508281526020810184848401111561050157610500610412565b5b61050c8482856104c3565b509392505050565b600082601f8301126105295761052861040d565b5b81356105398482602086016104d2565b91505092915050565b60006020828403121561055857610557610403565b5b600082013567ffffffffffffffff81111561057657610575610408565b5b61058284828501610514565b91505092915050565b600073ffffffffffffffffffffffffffffffffffffffff82169050919050565b60006105b68261058b565b9050919050565b6105c6816105ab565b82525050565b60006020820190506105e160008301846105bd565b92915050565b7f4e487b7100000000000000000000000000000000000000000000000000000000600052602260045260246000fd5b6000600282049050600182168061062e57607f821691505b60208210811415610642576106416105e7565b5b5091905056fea26469706673582212209e5af1e835f94f58fa47b852b4f944329c60d9af97e27cd607343d72231904a364736f6c63430008090033",
  "immutableReferences": {},
  "source": "// SPDX-License-Identifier: MIT\r\npragma solidity 0.8.9;\r\n\r\ncontract Helloworld {\r\n    string public message;\r\n    address public owner;\r\n\r\n    constructor(string memory _message) {\r\n        message = _message;\r\n        owner = msg.sender;\r\n    }\r\n\r\n    function hello() public view returns (string memory) {\r\n        return message;\r\n    }\r\n\r\n    function setMessage(string memory _message) public payable {\r\n        require(msg.sender == owner);\r\n        message = _message;\r\n    }\r\n}\r\n\r\n",
  "sourcePath": "C:\\Users\\lin_y\\Documents\\Truffle Project\\contracts\\Helloworld.sol",
  "compiler": {
    "name": "solc",
    "version": "0.8.9+commit.e5eed63a.Emscripten.clang"
  },
  "schemaVersion": "3.4.3",
  "updatedAt": "2021-09-30T12:53:14.116Z",
  "networkType": "ethereum",
  "devdoc": {
    "kind": "dev",
    "methods": {},
    "version": 1
  },
  "userdoc": {
    "kind": "user",
    "methods": {},
    "version": 1
  }
}