{
  "contractName": "HelloworldPermanent",
  "abi": [
    {
      "inputs": [
        {
          "internalType": "string",
          "name": "_message",
          "type": "string"
        }
      ],
      "stateMutability": "nonpayable",
      "type": "constructor"
    },
    {
      "inputs": [],
      "name": "message",
      "outputs": [
        {
          "internalType": "string",
          "name": "",
          "type": "string"
        }
      ],
      "stateMutability": "view",
      "type": "function",
      "constant": true
    },
    {
      "inputs": [],
      "name": "owner",
      "outputs": [
        {
          "internalType": "address",
          "name": "",
          "type": "address"
        }
      ],
      "stateMutability": "view",
      "type": "function",
      "constant": true
    }
  ],
  "bytecode": "0x608060405234801561001057600080fd5b5060405161060238038061060283398181016040528101906100329190610270565b806000908051906020019061004892919061004f565b505061031a565b82805461005b906102e8565b90600052602060002090601f01602090048101928261007d57600085556100c4565b82601f1061009657805160ff19168380011785556100c4565b828001600101855582156100c4579182015b828111156100c35782518255916020019190600101906100a8565b5b5090506100d191906100d5565b5090565b5b808211156100ee5760008160009055506001016100d6565b5090565b6000604051905090565b600080fd5b600080fd5b600080fd5b600080fd5b6000601f19601f8301169050919050565b7f4e487b7100000000000000000000000000000000000000000000000000000000600052604160045260246000fd5b61015982610110565b810181811067ffffffffffffffff8211171561017857610177610121565b5b80604052505050565b600061018b6100f2565b90506101978282610150565b919050565b600067ffffffffffffffff8211156101b7576101b6610121565b5b6101c082610110565b9050602081019050919050565b60005b838110156101eb5780820151818401526020810190506101d0565b838111156101fa576000848401525b50505050565b600061021361020e8461019c565b610181565b90508281526020810184848401111561022f5761022e61010b565b5b61023a8482856101cd565b509392505050565b600082601f83011261025757610256610106565b5b8151610267848260208601610200565b91505092915050565b600060208284031215610286576102856100fc565b5b600082015167ffffffffffffffff8111156102a4576102a3610101565b5b6102b084828501610242565b91505092915050565b7f4e487b7100000000000000000000000000000000000000000000000000000000600052602260045260246000fd5b6000600282049050600182168061030057607f821691505b60208210811415610314576103136102b9565b5b50919050565b6102d9806103296000396000f3fe608060405234801561001057600080fd5b50600436106100365760003560e01c80638da5cb5b1461003b578063e21f37ce14610059575b600080fd5b610043610077565b604051610050919061016c565b60405180910390f35b61006161009d565b60405161006e9190610220565b60405180910390f35b600160009054906101000a900473ffffffffffffffffffffffffffffffffffffffff1681565b600080546100aa90610271565b80601f01602080910402602001604051908101604052809291908181526020018280546100d690610271565b80156101235780601f106100f857610100808354040283529160200191610123565b820191906000526020600020905b81548152906001019060200180831161010657829003601f168201915b505050505081565b600073ffffffffffffffffffffffffffffffffffffffff82169050919050565b60006101568261012b565b9050919050565b6101668161014b565b82525050565b6000602082019050610181600083018461015d565b92915050565b600081519050919050565b600082825260208201905092915050565b60005b838110156101c15780820151818401526020810190506101a6565b838111156101d0576000848401525b50505050565b6000601f19601f8301169050919050565b60006101f282610187565b6101fc8185610192565b935061020c8185602086016101a3565b610215816101d6565b840191505092915050565b6000602082019050818103600083015261023a81846101e7565b905092915050565b7f4e487b7100000000000000000000000000000000000000000000000000000000600052602260045260246000fd5b6000600282049050600182168061028957607f821691505b6020821081141561029d5761029c610242565b5b5091905056fea2646970667358221220da2a9f0fd390d4fe9949470195f5ee970c7b297e43fdfe3e600ef3ec65e4abff64736f6c63430008090033",
  "immutableReferences": {},
  "source": "// SPDX-License-Identifier: MIT\r\npragma solidity 0.8.9;\r\n\r\ncontract HelloworldPermanent {\r\n    string public message;\r\n    address public owner;\r\n\r\n    constructor(string memory _message) {\r\n        message = _message;\r\n    }\r\n\r\n    \r\n}\r\n\r\n",
  "sourcePath": "C:\\Users\\lin_y\\Documents\\Truffle Project\\contracts\\Helloworld2.sol",
  "compiler": {
    "name": "solc",
    "version": "0.8.9+commit.e5eed63a.Emscripten.clang"
  },
  "schemaVersion": "3.4.3",
  "updatedAt": "2021-09-30T12:53:14.119Z",
  "networkType": "ethereum",
  "devdoc": {
    "kind": "dev",
    "methods": {},
    "version": 1
  },
  "userdoc": {
    "kind": "user",
    "methods": {},
    "version": 1
  }
}